:100000000EC026C025C024C023C022C021C020C0ED
:100010001FC01EC01DC01CC01BC070C08BC01124DF
:100020001FBECFEDCDBF10E0A0E6B0E0E6E8F2E005
:1000300002C005900D92A036B107D9F710E0A0E6F6
:10004000B0E001C01D92A838B107E1F702D019C194
:10005000D7CF8AE208D0C0E01BD08823E9F78C2FE5
:1000600020D0CF5FF9CF10926200109263001092FF
:100070006000109261008093650087B3856087BB44
:10008000C29AC09AB89888EA8DB980EF8EB908955F
:10009000209161009091600081E0291709F480E0CF
:1000A0000895209161002F5F2F70909160002917B3
:1000B000E1F3E6E6F0E0E20FF11D808320936100BA
:1000C000089590916300809162009817D1F3809118
:1000D00062008F5F8F708093620080916200E6E71C
:1000E000F0E0E80FF11D8081089520916300909168
:1000F000620081E0291709F480E008951F920F92B1
:100100000FB60F9211248F9310926400B898B29B8F
:1001100002C0B09BFCCFB09903C088EF8DB902C07C
:1001200088EA8DB980EF8EB98F910F900FBE0F9036
:100130001F9018951F920F920FB60F9211242F93B4
:100140003F934F935F936F937F938F939F93AF935F
:10015000BF93EF93FF9380916400823009F45CC0F9
:10016000833030F4882369F0813009F079C034C0DD
:10017000843009F459C0843038F1853009F070C0FA
:100180005AC08FB1882331F09FB196958091650058
:100190009817A9F4E0918600F0918700309709F054
:1001A0000995789B04C081E08093640003C084E0DB
:1001B000809364001FB8B89A8EE78EB951C088EA60
:1001C0008DB980E78EB94CC08FB1882329F088EAB9
:1001D0008DB980E78EB944C0909161008091600034
:1001E0009817A9F0809160008F5F8F7080936000F6
:1001F00080916000E6E6F0E0E80FF11D80818FB9A4
:1002000082E080936400B89A80E78EB929C088EABA
:100210008DB980E78EB924C083E080936400B898DC
:100220001FB88EE78EB91CC085E080936400B89833
:1002300080E78EB915C0809163008F5F8F708093C7
:100240006300909163008FB1E6E7F0E0E90FF11DE4
:10025000808384E0809364001FB8B89A8EE78EB9DB
:10026000FF91EF91BF91AF919F918F917F916F918E
:100270005F914F913F912F910F900FBE0F901F9064
:060280001895F894FFCF71
:00000001FF
